{
  "address": "0x06363757b87cc90Fc2b4a6F4B65CB926a7D3c765",
  "abi": [
    {
      "inputs": [
        {
          "internalType": "address",
          "name": "_dappTokenAddress",
          "type": "address"
        }
      ],
      "stateMutability": "nonpayable",
      "type": "constructor"
    },
    {
      "inputs": [
        {
          "internalType": "address",
          "name": "spender",
          "type": "address"
        }
      ],
      "name": "TokenFarm__AddressLessThan1DayForDappToken",
      "type": "error"
    },
    {
      "anonymous": false,
      "inputs": [
        {
          "indexed": true,
          "internalType": "address",
          "name": "previousOwner",
          "type": "address"
        },
        {
          "indexed": true,
          "internalType": "address",
          "name": "newOwner",
          "type": "address"
        }
      ],
      "name": "OwnershipTransferred",
      "type": "event"
    },
    {
      "inputs": [
        {
          "internalType": "address",
          "name": "_token",
          "type": "address"
        }
      ],
      "name": "addAllowedTokens",
      "outputs": [],
      "stateMutability": "nonpayable",
      "type": "function"
    },
    {
      "inputs": [
        {
          "internalType": "address",
          "name": "",
          "type": "address"
        }
      ],
      "name": "addressToLastGetDappToken",
      "outputs": [
        {
          "internalType": "uint256",
          "name": "",
          "type": "uint256"
        }
      ],
      "stateMutability": "view",
      "type": "function"
    },
    {
      "inputs": [
        {
          "internalType": "uint256",
          "name": "",
          "type": "uint256"
        }
      ],
      "name": "allowedTokens",
      "outputs": [
        {
          "internalType": "address",
          "name": "",
          "type": "address"
        }
      ],
      "stateMutability": "view",
      "type": "function"
    },
    {
      "inputs": [],
      "name": "dappToken",
      "outputs": [
        {
          "internalType": "contract IERC20",
          "name": "",
          "type": "address"
        }
      ],
      "stateMutability": "view",
      "type": "function"
    },
    {
      "inputs": [],
      "name": "get10DappToken",
      "outputs": [],
      "stateMutability": "nonpayable",
      "type": "function"
    },
    {
      "inputs": [
        {
          "internalType": "address",
          "name": "_token",
          "type": "address"
        }
      ],
      "name": "getTokenValue",
      "outputs": [
        {
          "internalType": "uint256",
          "name": "",
          "type": "uint256"
        },
        {
          "internalType": "uint256",
          "name": "",
          "type": "uint256"
        }
      ],
      "stateMutability": "view",
      "type": "function"
    },
    {
      "inputs": [
        {
          "internalType": "address",
          "name": "_user",
          "type": "address"
        },
        {
          "internalType": "address",
          "name": "_token",
          "type": "address"
        }
      ],
      "name": "getUserSingleTokenValue",
      "outputs": [
        {
          "internalType": "uint256",
          "name": "",
          "type": "uint256"
        }
      ],
      "stateMutability": "view",
      "type": "function"
    },
    {
      "inputs": [
        {
          "internalType": "address",
          "name": "_user",
          "type": "address"
        }
      ],
      "name": "getUserTotalValue",
      "outputs": [
        {
          "internalType": "uint256",
          "name": "",
          "type": "uint256"
        }
      ],
      "stateMutability": "view",
      "type": "function"
    },
    {
      "inputs": [],
      "name": "issueTokens",
      "outputs": [],
      "stateMutability": "nonpayable",
      "type": "function"
    },
    {
      "inputs": [],
      "name": "owner",
      "outputs": [
        {
          "internalType": "address",
          "name": "",
          "type": "address"
        }
      ],
      "stateMutability": "view",
      "type": "function"
    },
    {
      "inputs": [],
      "name": "renounceOwnership",
      "outputs": [],
      "stateMutability": "nonpayable",
      "type": "function"
    },
    {
      "inputs": [
        {
          "internalType": "address",
          "name": "_token",
          "type": "address"
        },
        {
          "internalType": "address",
          "name": "_priceFeed",
          "type": "address"
        }
      ],
      "name": "setPriceFeedContract",
      "outputs": [],
      "stateMutability": "nonpayable",
      "type": "function"
    },
    {
      "inputs": [
        {
          "internalType": "uint256",
          "name": "_amount",
          "type": "uint256"
        },
        {
          "internalType": "address",
          "name": "_token",
          "type": "address"
        }
      ],
      "name": "stakeTokens",
      "outputs": [],
      "stateMutability": "nonpayable",
      "type": "function"
    },
    {
      "inputs": [
        {
          "internalType": "uint256",
          "name": "",
          "type": "uint256"
        }
      ],
      "name": "stakers",
      "outputs": [
        {
          "internalType": "address",
          "name": "",
          "type": "address"
        }
      ],
      "stateMutability": "view",
      "type": "function"
    },
    {
      "inputs": [
        {
          "internalType": "address",
          "name": "",
          "type": "address"
        },
        {
          "internalType": "address",
          "name": "",
          "type": "address"
        }
      ],
      "name": "stakingBalance",
      "outputs": [
        {
          "internalType": "uint256",
          "name": "",
          "type": "uint256"
        }
      ],
      "stateMutability": "view",
      "type": "function"
    },
    {
      "inputs": [
        {
          "internalType": "address",
          "name": "_token",
          "type": "address"
        }
      ],
      "name": "tokenIsAllowed",
      "outputs": [
        {
          "internalType": "bool",
          "name": "",
          "type": "bool"
        }
      ],
      "stateMutability": "view",
      "type": "function"
    },
    {
      "inputs": [
        {
          "internalType": "address",
          "name": "",
          "type": "address"
        }
      ],
      "name": "tokenPriceFeedMapping",
      "outputs": [
        {
          "internalType": "address",
          "name": "",
          "type": "address"
        }
      ],
      "stateMutability": "view",
      "type": "function"
    },
    {
      "inputs": [
        {
          "internalType": "address",
          "name": "newOwner",
          "type": "address"
        }
      ],
      "name": "transferOwnership",
      "outputs": [],
      "stateMutability": "nonpayable",
      "type": "function"
    },
    {
      "inputs": [
        {
          "internalType": "address",
          "name": "",
          "type": "address"
        }
      ],
      "name": "uniqueTokensStaked",
      "outputs": [
        {
          "internalType": "uint256",
          "name": "",
          "type": "uint256"
        }
      ],
      "stateMutability": "view",
      "type": "function"
    },
    {
      "inputs": [
        {
          "internalType": "address",
          "name": "_token",
          "type": "address"
        },
        {
          "internalType": "uint256",
          "name": "_amount",
          "type": "uint256"
        }
      ],
      "name": "unstakeTokens",
      "outputs": [],
      "stateMutability": "nonpayable",
      "type": "function"
    }
  ],
  "transactionHash": "0xeff97767679cdf48911a757ae42cd4d72a3a27af33cf7ed35b02058c3807cedb",
  "args": [
    "0x7b64Cf93B772F1968f2F12E883e0c770E20dEE20"
  ],
  "numDeployments": 3,
  "solcInputHash": "3488d0924341dd7cfa1279e86f88c10a",
  "bytecode": "0x60806040523480156200001157600080fd5b5060405162002349380380620023498339818101604052810190620000379190620001d5565b620000576200004b6200009f60201b60201c565b620000a760201b60201c565b80600760006101000a81548173ffffffffffffffffffffffffffffffffffffffff021916908373ffffffffffffffffffffffffffffffffffffffff1602179055505062000207565b600033905090565b60008060009054906101000a900473ffffffffffffffffffffffffffffffffffffffff169050816000806101000a81548173ffffffffffffffffffffffffffffffffffffffff021916908373ffffffffffffffffffffffffffffffffffffffff1602179055508173ffffffffffffffffffffffffffffffffffffffff168173ffffffffffffffffffffffffffffffffffffffff167f8be0079c531659141344cd1fd0a4f28419497f9722a3daafe3b4186f6b6457e060405160405180910390a35050565b600080fd5b600073ffffffffffffffffffffffffffffffffffffffff82169050919050565b60006200019d8262000170565b9050919050565b620001af8162000190565b8114620001bb57600080fd5b50565b600081519050620001cf81620001a4565b92915050565b600060208284031215620001ee57620001ed6200016b565b5b6000620001fe84828501620001be565b91505092915050565b61213280620002176000396000f3fe608060405234801561001057600080fd5b506004361061012c5760003560e01c80638144fee0116100ad578063dd5b846711610071578063dd5b84671461032f578063e89a173e1461035f578063f1c5d6c21461037b578063f2fde38b146103ac578063fd5e6dd1146103c85761012c565b80638144fee01461028b578063877dd39d146102955780638da5cb5b146102b1578063af3f5e22146102cf578063b83e0234146102ff5761012c565b8063387ad87c116100f4578063387ad87c146101f95780635e5f2e26146102295780635eb186f81461025957806360ab585214610277578063715018a6146102815761012c565b80630bea440d14610131578063171e44ea1461014d578063276b11da1461016957806327927b3e1461019957806329161a00146101c9575b600080fd5b61014b600480360381019061014691906115d8565b6103f8565b005b61016760048036038101906101629190611618565b610660565b005b610183600480360381019061017e9190611645565b6106ce565b6040516101909190611694565b60405180910390f35b6101b360048036038101906101ae9190611618565b6107d9565b6040516101c091906116be565b60405180910390f35b6101e360048036038101906101de9190611645565b61080c565b6040516101f09190611694565b60405180910390f35b610213600480360381019061020e9190611618565b610831565b6040516102209190611694565b60405180910390f35b610243600480360381019061023e91906116d9565b610849565b60405161025091906116be565b60405180910390f35b610261610888565b60405161026e9190611765565b60405180910390f35b61027f6108ae565b005b6102896109de565b005b6102936109f2565b005b6102af60048036038101906102aa9190611645565b610b82565b005b6102b9610c0c565b6040516102c691906116be565b60405180910390f35b6102e960048036038101906102e49190611618565b610c35565b6040516102f69190611694565b60405180910390f35b61031960048036038101906103149190611618565b610d40565b6040516103269190611694565b60405180910390f35b61034960048036038101906103449190611618565b610d58565b604051610356919061179b565b60405180910390f35b610379600480360381019061037491906117b6565b610e07565b005b61039560048036038101906103909190611618565b6110cc565b6040516103a39291906117f6565b60405180910390f35b6103c660048036038101906103c19190611618565b611252565b005b6103e260048036038101906103dd91906116d9565b6112d6565b6040516103ef91906116be565b60405180910390f35b6000821161043b576040517f08c379a00000000000000000000000000000000000000000000000000000000081526004016104329061187c565b60405180910390fd5b61044481610d58565b610483576040517f08c379a000000000000000000000000000000000000000000000000000000000815260040161047a906118e8565b60405180910390fd5b8073ffffffffffffffffffffffffffffffffffffffff166323b872dd3330856040518463ffffffff1660e01b81526004016104c093929190611908565b602060405180830381600087803b1580156104da57600080fd5b505af11580156104ee573d6000803e3d6000fd5b505050506040513d601f19601f82011682018060405250810190610512919061196b565b5061051d3382611315565b81600160008373ffffffffffffffffffffffffffffffffffffffff1673ffffffffffffffffffffffffffffffffffffffff16815260200190815260200160002060003373ffffffffffffffffffffffffffffffffffffffff1673ffffffffffffffffffffffffffffffffffffffff16815260200190815260200160002060008282546105a991906119c7565b925050819055506001600260003373ffffffffffffffffffffffffffffffffffffffff1673ffffffffffffffffffffffffffffffffffffffff16815260200190815260200160002054141561065c576005339080600181540180825580915050600190039060005260206000200160009091909190916101000a81548173ffffffffffffffffffffffffffffffffffffffff021916908373ffffffffffffffffffffffffffffffffffffffff1602179055505b5050565b6106686113f5565b6006819080600181540180825580915050600190039060005260206000200160009091909190916101000a81548173ffffffffffffffffffffffffffffffffffffffff021916908373ffffffffffffffffffffffffffffffffffffffff16021790555050565b600080600260008573ffffffffffffffffffffffffffffffffffffffff1673ffffffffffffffffffffffffffffffffffffffff168152602001908152602001600020541161071f57600090506107d3565b60008061072b846110cc565b9150915080600a61073c9190611b50565b82600160008773ffffffffffffffffffffffffffffffffffffffff1673ffffffffffffffffffffffffffffffffffffffff16815260200190815260200160002060008873ffffffffffffffffffffffffffffffffffffffff1673ffffffffffffffffffffffffffffffffffffffff168152602001908152602001600020546107c49190611b9b565b6107ce9190611c24565b925050505b92915050565b60036020528060005260406000206000915054906101000a900473ffffffffffffffffffffffffffffffffffffffff1681565b6001602052816000526040600020602052806000526040600020600091509150505481565b60046020528060005260406000206000915090505481565b6006818154811061085957600080fd5b906000526020600020016000915054906101000a900473ffffffffffffffffffffffffffffffffffffffff1681565b600760009054906101000a900473ffffffffffffffffffffffffffffffffffffffff1681565b6108b66113f5565b60005b6005805490508110156109db576000600582815481106108dc576108db611c55565b5b9060005260206000200160009054906101000a900473ffffffffffffffffffffffffffffffffffffffff169050600061091482610c35565b9050600760009054906101000a900473ffffffffffffffffffffffffffffffffffffffff1673ffffffffffffffffffffffffffffffffffffffff1663a9059cbb83836040518363ffffffff1660e01b8152600401610973929190611c84565b602060405180830381600087803b15801561098d57600080fd5b505af11580156109a1573d6000803e3d6000fd5b505050506040513d601f19601f820116820180604052508101906109c5919061196b565b50505080806109d390611cad565b9150506108b9565b50565b6109e66113f5565b6109f06000611473565b565b62015180600460003373ffffffffffffffffffffffffffffffffffffffff1673ffffffffffffffffffffffffffffffffffffffff1681526020019081526020016000205442610a419190611cf6565b1015610a8457336040517f64187f0e000000000000000000000000000000000000000000000000000000008152600401610a7b91906116be565b60405180910390fd5b42600460003373ffffffffffffffffffffffffffffffffffffffff1673ffffffffffffffffffffffffffffffffffffffff16815260200190815260200160002081905550600760009054906101000a900473ffffffffffffffffffffffffffffffffffffffff1673ffffffffffffffffffffffffffffffffffffffff1663a9059cbb33678ac7230489e800006040518363ffffffff1660e01b8152600401610b2d929190611d65565b602060405180830381600087803b158015610b4757600080fd5b505af1158015610b5b573d6000803e3d6000fd5b505050506040513d601f19601f82011682018060405250810190610b7f919061196b565b50565b610b8a6113f5565b80600360008473ffffffffffffffffffffffffffffffffffffffff1673ffffffffffffffffffffffffffffffffffffffff16815260200190815260200160002060006101000a81548173ffffffffffffffffffffffffffffffffffffffff021916908373ffffffffffffffffffffffffffffffffffffffff1602179055505050565b60008060009054906101000a900473ffffffffffffffffffffffffffffffffffffffff16905090565b600080600090506000600260008573ffffffffffffffffffffffffffffffffffffffff1673ffffffffffffffffffffffffffffffffffffffff1681526020019081526020016000205411610cbe576040517f08c379a0000000000000000000000000000000000000000000000000000000008152600401610cb590611dda565b60405180910390fd5b60005b600680549050811015610d3657610d168460068381548110610ce657610ce5611c55565b5b9060005260206000200160009054906101000a900473ffffffffffffffffffffffffffffffffffffffff166106ce565b82610d2191906119c7565b91508080610d2e90611cad565b915050610cc1565b5080915050919050565b60026020528060005260406000206000915090505481565b600080600090505b600680549050811015610dfc5760068181548110610d8157610d80611c55565b5b9060005260206000200160009054906101000a900473ffffffffffffffffffffffffffffffffffffffff1673ffffffffffffffffffffffffffffffffffffffff168373ffffffffffffffffffffffffffffffffffffffff161415610de9576001915050610e02565b8080610df490611cad565b915050610d60565b50600090505b919050565b6000600160008473ffffffffffffffffffffffffffffffffffffffff1673ffffffffffffffffffffffffffffffffffffffff16815260200190815260200160002060003373ffffffffffffffffffffffffffffffffffffffff1673ffffffffffffffffffffffffffffffffffffffff16815260200190815260200160002054905060008111610ecb576040517f08c379a0000000000000000000000000000000000000000000000000000000008152600401610ec290611e46565b60405180910390fd5b8273ffffffffffffffffffffffffffffffffffffffff1663a9059cbb33846040518363ffffffff1660e01b8152600401610f06929190611c84565b602060405180830381600087803b158015610f2057600080fd5b505af1158015610f34573d6000803e3d6000fd5b505050506040513d601f19601f82011682018060405250810190610f58919061196b565b5081600160008573ffffffffffffffffffffffffffffffffffffffff1673ffffffffffffffffffffffffffffffffffffffff16815260200190815260200160002060003373ffffffffffffffffffffffffffffffffffffffff1673ffffffffffffffffffffffffffffffffffffffff1681526020019081526020016000206000828254610fe59190611cf6565b925050819055506000600160008573ffffffffffffffffffffffffffffffffffffffff1673ffffffffffffffffffffffffffffffffffffffff16815260200190815260200160002060003373ffffffffffffffffffffffffffffffffffffffff1673ffffffffffffffffffffffffffffffffffffffff1681526020019081526020016000205414156110c757600260003373ffffffffffffffffffffffffffffffffffffffff1673ffffffffffffffffffffffffffffffffffffffff16815260200190815260200160002060008154809291906110c190611e66565b91905055505b505050565b6000806000600360008573ffffffffffffffffffffffffffffffffffffffff1673ffffffffffffffffffffffffffffffffffffffff16815260200190815260200160002060009054906101000a900473ffffffffffffffffffffffffffffffffffffffff169050600081905060008173ffffffffffffffffffffffffffffffffffffffff1663feaf968c6040518163ffffffff1660e01b815260040160a06040518083038186803b15801561118057600080fd5b505afa158015611194573d6000803e3d6000fd5b505050506040513d601f19601f820116820180604052508101906111b89190611f1d565b50505091505060008273ffffffffffffffffffffffffffffffffffffffff1663313ce5676040518163ffffffff1660e01b815260040160206040518083038186803b15801561120657600080fd5b505afa15801561121a573d6000803e3d6000fd5b505050506040513d601f19601f8201168201806040525081019061123e9190611fd1565b60ff16905081819550955050505050915091565b61125a6113f5565b600073ffffffffffffffffffffffffffffffffffffffff168173ffffffffffffffffffffffffffffffffffffffff1614156112ca576040517f08c379a00000000000000000000000000000000000000000000000000000000081526004016112c190612070565b60405180910390fd5b6112d381611473565b50565b600581815481106112e657600080fd5b906000526020600020016000915054906101000a900473ffffffffffffffffffffffffffffffffffffffff1681565b6000600160008373ffffffffffffffffffffffffffffffffffffffff1673ffffffffffffffffffffffffffffffffffffffff16815260200190815260200160002060008473ffffffffffffffffffffffffffffffffffffffff1673ffffffffffffffffffffffffffffffffffffffff16815260200190815260200160002054116113f1576001600260008473ffffffffffffffffffffffffffffffffffffffff1673ffffffffffffffffffffffffffffffffffffffff16815260200190815260200160002060008282546113e991906119c7565b925050819055505b5050565b6113fd611537565b73ffffffffffffffffffffffffffffffffffffffff1661141b610c0c565b73ffffffffffffffffffffffffffffffffffffffff1614611471576040517f08c379a0000000000000000000000000000000000000000000000000000000008152600401611468906120dc565b60405180910390fd5b565b60008060009054906101000a900473ffffffffffffffffffffffffffffffffffffffff169050816000806101000a81548173ffffffffffffffffffffffffffffffffffffffff021916908373ffffffffffffffffffffffffffffffffffffffff1602179055508173ffffffffffffffffffffffffffffffffffffffff168173ffffffffffffffffffffffffffffffffffffffff167f8be0079c531659141344cd1fd0a4f28419497f9722a3daafe3b4186f6b6457e060405160405180910390a35050565b600033905090565b600080fd5b6000819050919050565b61155781611544565b811461156257600080fd5b50565b6000813590506115748161154e565b92915050565b600073ffffffffffffffffffffffffffffffffffffffff82169050919050565b60006115a58261157a565b9050919050565b6115b58161159a565b81146115c057600080fd5b50565b6000813590506115d2816115ac565b92915050565b600080604083850312156115ef576115ee61153f565b5b60006115fd85828601611565565b925050602061160e858286016115c3565b9150509250929050565b60006020828403121561162e5761162d61153f565b5b600061163c848285016115c3565b91505092915050565b6000806040838503121561165c5761165b61153f565b5b600061166a858286016115c3565b925050602061167b858286016115c3565b9150509250929050565b61168e81611544565b82525050565b60006020820190506116a96000830184611685565b92915050565b6116b88161159a565b82525050565b60006020820190506116d360008301846116af565b92915050565b6000602082840312156116ef576116ee61153f565b5b60006116fd84828501611565565b91505092915050565b6000819050919050565b600061172b6117266117218461157a565b611706565b61157a565b9050919050565b600061173d82611710565b9050919050565b600061174f82611732565b9050919050565b61175f81611744565b82525050565b600060208201905061177a6000830184611756565b92915050565b60008115159050919050565b61179581611780565b82525050565b60006020820190506117b0600083018461178c565b92915050565b600080604083850312156117cd576117cc61153f565b5b60006117db858286016115c3565b92505060206117ec85828601611565565b9150509250929050565b600060408201905061180b6000830185611685565b6118186020830184611685565b9392505050565b600082825260208201905092915050565b7f416d6f756e74206d757374206265206d6f7265207468616e207a65726f210000600082015250565b6000611866601e8361181f565b915061187182611830565b602082019050919050565b6000602082019050818103600083015261189581611859565b9050919050565b7f546f6b656e2069732063757272656e746c79206e6f7420616c6c6f7765642100600082015250565b60006118d2601f8361181f565b91506118dd8261189c565b602082019050919050565b60006020820190508181036000830152611901816118c5565b9050919050565b600060608201905061191d60008301866116af565b61192a60208301856116af565b6119376040830184611685565b949350505050565b61194881611780565b811461195357600080fd5b50565b6000815190506119658161193f565b92915050565b6000602082840312156119815761198061153f565b5b600061198f84828501611956565b91505092915050565b7f4e487b7100000000000000000000000000000000000000000000000000000000600052601160045260246000fd5b60006119d282611544565b91506119dd83611544565b9250827fffffffffffffffffffffffffffffffffffffffffffffffffffffffffffffffff03821115611a1257611a11611998565b5b828201905092915050565b60008160011c9050919050565b6000808291508390505b6001851115611a7457808604811115611a5057611a4f611998565b5b6001851615611a5f5780820291505b8081029050611a6d85611a1d565b9450611a34565b94509492505050565b600082611a8d5760019050611b49565b81611a9b5760009050611b49565b8160018114611ab15760028114611abb57611aea565b6001915050611b49565b60ff841115611acd57611acc611998565b5b8360020a915084821115611ae457611ae3611998565b5b50611b49565b5060208310610133831016604e8410600b8410161715611b1f5782820a905083811115611b1a57611b19611998565b5b611b49565b611b2c8484846001611a2a565b92509050818404811115611b4357611b42611998565b5b81810290505b9392505050565b6000611b5b82611544565b9150611b6683611544565b9250611b937fffffffffffffffffffffffffffffffffffffffffffffffffffffffffffffffff8484611a7d565b905092915050565b6000611ba682611544565b9150611bb183611544565b9250817fffffffffffffffffffffffffffffffffffffffffffffffffffffffffffffffff0483118215151615611bea57611be9611998565b5b828202905092915050565b7f4e487b7100000000000000000000000000000000000000000000000000000000600052601260045260246000fd5b6000611c2f82611544565b9150611c3a83611544565b925082611c4a57611c49611bf5565b5b828204905092915050565b7f4e487b7100000000000000000000000000000000000000000000000000000000600052603260045260246000fd5b6000604082019050611c9960008301856116af565b611ca66020830184611685565b9392505050565b6000611cb882611544565b91507fffffffffffffffffffffffffffffffffffffffffffffffffffffffffffffffff821415611ceb57611cea611998565b5b600182019050919050565b6000611d0182611544565b9150611d0c83611544565b925082821015611d1f57611d1e611998565b5b828203905092915050565b6000819050919050565b6000611d4f611d4a611d4584611d2a565b611706565b611544565b9050919050565b611d5f81611d34565b82525050565b6000604082019050611d7a60008301856116af565b611d876020830184611d56565b9392505050565b7f4e6f20746f6b656e73207374616b656421000000000000000000000000000000600082015250565b6000611dc460118361181f565b9150611dcf82611d8e565b602082019050919050565b60006020820190508181036000830152611df381611db7565b9050919050565b7f5374616b696e672062616c616e63652063616e6e6f7420626520300000000000600082015250565b6000611e30601b8361181f565b9150611e3b82611dfa565b602082019050919050565b60006020820190508181036000830152611e5f81611e23565b9050919050565b6000611e7182611544565b91506000821415611e8557611e84611998565b5b600182039050919050565b600069ffffffffffffffffffff82169050919050565b611eaf81611e90565b8114611eba57600080fd5b50565b600081519050611ecc81611ea6565b92915050565b6000819050919050565b611ee581611ed2565b8114611ef057600080fd5b50565b600081519050611f0281611edc565b92915050565b600081519050611f178161154e565b92915050565b600080600080600060a08688031215611f3957611f3861153f565b5b6000611f4788828901611ebd565b9550506020611f5888828901611ef3565b9450506040611f6988828901611f08565b9350506060611f7a88828901611f08565b9250506080611f8b88828901611ebd565b9150509295509295909350565b600060ff82169050919050565b611fae81611f98565b8114611fb957600080fd5b50565b600081519050611fcb81611fa5565b92915050565b600060208284031215611fe757611fe661153f565b5b6000611ff584828501611fbc565b91505092915050565b7f4f776e61626c653a206e6577206f776e657220697320746865207a65726f206160008201527f6464726573730000000000000000000000000000000000000000000000000000602082015250565b600061205a60268361181f565b915061206582611ffe565b604082019050919050565b600060208201905081810360008301526120898161204d565b9050919050565b7f4f776e61626c653a2063616c6c6572206973206e6f7420746865206f776e6572600082015250565b60006120c660208361181f565b91506120d182612090565b602082019050919050565b600060208201905081810360008301526120f5816120b9565b905091905056fea2646970667358221220499e5694b7701516b6357855e1ea80cfca8dc0b0e3c8787b994d5e1b755043d764736f6c63430008080033",
  "devdoc": {
    "kind": "dev",
    "methods": {
      "owner()": {
        "details": "Returns the address of the current owner."
      },
      "renounceOwnership()": {
        "details": "Leaves the contract without owner. It will not be possible to call `onlyOwner` functions anymore. Can only be called by the current owner. NOTE: Renouncing ownership will leave the contract without an owner, thereby removing any functionality that is only available to the owner."
      },
      "transferOwnership(address)": {
        "details": "Transfers ownership of the contract to a new account (`newOwner`). Can only be called by the current owner."
      }
    },
    "version": 1
  },
  "userdoc": {
    "kind": "user",
    "methods": {},
    "version": 1
  },
  "storageLayout": {
    "storage": [
      {
        "astId": 53,
        "contract": "contracts/TokenFarm.sol:TokenFarm",
        "label": "_owner",
        "offset": 0,
        "slot": "0",
        "type": "t_address"
      },
      {
        "astId": 906,
        "contract": "contracts/TokenFarm.sol:TokenFarm",
        "label": "stakingBalance",
        "offset": 0,
        "slot": "1",
        "type": "t_mapping(t_address,t_mapping(t_address,t_uint256))"
      },
      {
        "astId": 910,
        "contract": "contracts/TokenFarm.sol:TokenFarm",
        "label": "uniqueTokensStaked",
        "offset": 0,
        "slot": "2",
        "type": "t_mapping(t_address,t_uint256)"
      },
      {
        "astId": 914,
        "contract": "contracts/TokenFarm.sol:TokenFarm",
        "label": "tokenPriceFeedMapping",
        "offset": 0,
        "slot": "3",
        "type": "t_mapping(t_address,t_address)"
      },
      {
        "astId": 918,
        "contract": "contracts/TokenFarm.sol:TokenFarm",
        "label": "addressToLastGetDappToken",
        "offset": 0,
        "slot": "4",
        "type": "t_mapping(t_address,t_uint256)"
      },
      {
        "astId": 921,
        "contract": "contracts/TokenFarm.sol:TokenFarm",
        "label": "stakers",
        "offset": 0,
        "slot": "5",
        "type": "t_array(t_address)dyn_storage"
      },
      {
        "astId": 924,
        "contract": "contracts/TokenFarm.sol:TokenFarm",
        "label": "allowedTokens",
        "offset": 0,
        "slot": "6",
        "type": "t_array(t_address)dyn_storage"
      },
      {
        "astId": 927,
        "contract": "contracts/TokenFarm.sol:TokenFarm",
        "label": "dappToken",
        "offset": 0,
        "slot": "7",
        "type": "t_contract(IERC20)822"
      }
    ],
    "types": {
      "t_address": {
        "encoding": "inplace",
        "label": "address",
        "numberOfBytes": "20"
      },
      "t_array(t_address)dyn_storage": {
        "base": "t_address",
        "encoding": "dynamic_array",
        "label": "address[]",
        "numberOfBytes": "32"
      },
      "t_contract(IERC20)822": {
        "encoding": "inplace",
        "label": "contract IERC20",
        "numberOfBytes": "20"
      },
      "t_mapping(t_address,t_address)": {
        "encoding": "mapping",
        "key": "t_address",
        "label": "mapping(address => address)",
        "numberOfBytes": "32",
        "value": "t_address"
      },
      "t_mapping(t_address,t_mapping(t_address,t_uint256))": {
        "encoding": "mapping",
        "key": "t_address",
        "label": "mapping(address => mapping(address => uint256))",
        "numberOfBytes": "32",
        "value": "t_mapping(t_address,t_uint256)"
      },
      "t_mapping(t_address,t_uint256)": {
        "encoding": "mapping",
        "key": "t_address",
        "label": "mapping(address => uint256)",
        "numberOfBytes": "32",
        "value": "t_uint256"
      },
      "t_uint256": {
        "encoding": "inplace",
        "label": "uint256",
        "numberOfBytes": "32"
      }
    }
  }
}